:100000000C9434000C943E000C943E000C943E0082
:100010000C943E000C943E000C943E000C943E0068
:100020000C943E000C943E000C943E000C943E0058
:100030000C943E000C943E000C943E000C943E0048
:100040000C943E000C943E000C943E000C943E0038
:100050000C943E000C943E000C943E000C943E0028
:100060000C943E000C943E0011241FBECFEFD8E04C
:10007000DEBFCDBF0E944C000C9465000C940000C4
:10008000259A2D9808952D9A08952D98089585B153
:1000900090E2892785B908950E9440000E9443009C
:1000A0002FEF89E698E1215080409040E1F700C0B1
:1000B00000000E9445002FEF89E698E12150804022
:0E00C0009040E1F700C00000E9CFF894FFCFB8
:00000001FF
